{
  "_format": "hh-sol-artifact-1",
  "contractName": "SafetyTracker",
  "sourceName": "contracts/safety_tracker.sol",
  "abi": [
    {
      "inputs": [
        {
          "internalType": "uint256",
          "name": "_propertyId",
          "type": "uint256"
        },
        {
          "internalType": "string",
          "name": "_name",
          "type": "string"
        },
        {
          "internalType": "string",
          "name": "_origin",
          "type": "string"
        },
        {
          "internalType": "string",
          "name": "_destination",
          "type": "string"
        },
        {
          "internalType": "string",
          "name": "_location",
          "type": "string"
        },
        {
          "internalType": "uint256",
          "name": "_quantity",
          "type": "uint256"
        }
      ],
      "name": "addProperty",
      "outputs": [],
      "stateMutability": "nonpayable",
      "type": "function"
    },
    {
      "inputs": [
        {
          "internalType": "uint256",
          "name": "",
          "type": "uint256"
        }
      ],
      "name": "helpCenter",
      "outputs": [
        {
          "internalType": "string",
          "name": "helpCenter",
          "type": "string"
        },
        {
          "internalType": "string",
          "name": "helpCenterLocation",
          "type": "string"
        },
        {
          "internalType": "uint256",
          "name": "helpCenterId",
          "type": "uint256"
        }
      ],
      "stateMutability": "view",
      "type": "function"
    },
    {
      "inputs": [
        {
          "internalType": "uint256",
          "name": "",
          "type": "uint256"
        }
      ],
      "name": "properties",
      "outputs": [
        {
          "internalType": "uint256",
          "name": "propertyId",
          "type": "uint256"
        },
        {
          "internalType": "string",
          "name": "name",
          "type": "string"
        },
        {
          "internalType": "string",
          "name": "origin",
          "type": "string"
        },
        {
          "internalType": "string",
          "name": "destination",
          "type": "string"
        },
        {
          "internalType": "string",
          "name": "location",
          "type": "string"
        },
        {
          "internalType": "uint256",
          "name": "quantity",
          "type": "uint256"
        }
      ],
      "stateMutability": "view",
      "type": "function"
    },
    {
      "inputs": [
        {
          "internalType": "uint256",
          "name": "_propertyId",
          "type": "uint256"
        },
        {
          "internalType": "uint256",
          "name": "_quantity",
          "type": "uint256"
        }
      ],
      "name": "updateAllProperties",
      "outputs": [],
      "stateMutability": "nonpayable",
      "type": "function"
    },
    {
      "inputs": [
        {
          "internalType": "uint256",
          "name": "_helpCenterId",
          "type": "uint256"
        },
        {
          "internalType": "string",
          "name": "_helpCenterLocation",
          "type": "string"
        }
      ],
      "name": "updateHelpCenter",
      "outputs": [],
      "stateMutability": "nonpayable",
      "type": "function"
    },
    {
      "inputs": [
        {
          "internalType": "uint256",
          "name": "_propertyId",
          "type": "uint256"
        },
        {
          "internalType": "string",
          "name": "_location",
          "type": "string"
        }
      ],
      "name": "updateProperty",
      "outputs": [],
      "stateMutability": "nonpayable",
      "type": "function"
    }
  ],
  "bytecode": "0x608060405234801561001057600080fd5b50610f55806100206000396000f3fe608060405234801561001057600080fd5b50600436106100625760003560e01c80630398b8791461006757806373dd9d0e1461012c578063821f3f52146101f157806396d58d2f1461030b578063c2090bee14610343578063f7b10808146105d7575b600080fd5b61012a6004803603604081101561007d57600080fd5b8101908080359060200190929190803590602001906401000000008111156100a457600080fd5b8201836020820111156100b657600080fd5b803590602001918460018302840111640100000000831117156100d857600080fd5b91908080601f016020809104026020016040519081016040528093929190818152602001838380828437600081840152601f19601f8201169050808301925050505050505091929192905050506107d0565b005b6101ef6004803603604081101561014257600080fd5b81019080803590602001909291908035906020019064010000000081111561016957600080fd5b82018360208201111561017b57600080fd5b8035906020019184600183028401116401000000008311171561019d57600080fd5b91908080601f016020809104026020016040519081016040528093929190818152602001838380828437600081840152601f19601f820116905080830192505050505050509192919290505050610852565b005b61021d6004803603602081101561020757600080fd5b81019080803590602001909291905050506108d4565b604051808060200180602001848152602001838103835286818151815260200191508051906020019080838360005b8381101561026757808201518184015260208101905061024c565b50505050905090810190601f1680156102945780820380516001836020036101000a031916815260200191505b50838103825285818151815260200191508051906020019080838360005b838110156102cd5780820151818401526020810190506102b2565b50505050905090810190601f1680156102fa5780820380516001836020036101000a031916815260200191505b509550505050505060405180910390f35b6103416004803603604081101561032157600080fd5b810190808035906020019092919080359060200190929190505050610a3b565b005b6105d5600480360360c081101561035957600080fd5b81019080803590602001909291908035906020019064010000000081111561038057600080fd5b82018360208201111561039257600080fd5b803590602001918460018302840111640100000000831117156103b457600080fd5b91908080601f016020809104026020016040519081016040528093929190818152602001838380828437600081840152601f19601f8201169050808301925050505050505091929192908035906020019064010000000081111561041757600080fd5b82018360208201111561042957600080fd5b8035906020019184600183028401116401000000008311171561044b57600080fd5b91908080601f016020809104026020016040519081016040528093929190818152602001838380828437600081840152601f19601f820116905080830192505050505050509192919290803590602001906401000000008111156104ae57600080fd5b8201836020820111156104c057600080fd5b803590602001918460018302840111640100000000831117156104e257600080fd5b91908080601f016020809104026020016040519081016040528093929190818152602001838380828437600081840152601f19601f8201169050808301925050505050505091929192908035906020019064010000000081111561054557600080fd5b82018360208201111561055757600080fd5b8035906020019184600183028401116401000000008311171561057957600080fd5b91908080601f016020809104026020016040519081016040528093929190818152602001838380828437600081840152601f19601f82011690508083019250505050505050919291929080359060200190929190505050610aad565b005b610603600480360360208110156105ed57600080fd5b8101908080359060200190929190505050610ba3565b604051808781526020018060200180602001806020018060200186815260200185810385528a818151815260200191508051906020019080838360005b8381101561065b578082015181840152602081019050610640565b50505050905090810190601f1680156106885780820380516001836020036101000a031916815260200191505b50858103845289818151815260200191508051906020019080838360005b838110156106c15780820151818401526020810190506106a6565b50505050905090810190601f1680156106ee5780820380516001836020036101000a031916815260200191505b50858103835288818151815260200191508051906020019080838360005b8381101561072757808201518184015260208101905061070c565b50505050905090810190601f1680156107545780820380516001836020036101000a031916815260200191505b50858103825287818151815260200191508051906020019080838360005b8381101561078d578082015181840152602081019050610772565b50505050905090810190601f1680156107ba5780820380516001836020036101000a031916815260200191505b509a505050505050505050505060405180910390f35b60005b60018054905081101561084c5782600182815481106107ee57fe5b906000526020600020906006020160000154141561083f57816001828154811061081457fe5b90600052602060002090600602016004019080519060200190610838929190610e4c565b505061084e565b80806001019150506107d3565b505b5050565b60005b6000805490508110156108ce57826000828154811061087057fe5b90600052602060002090600302016002015414156108c157816000828154811061089657fe5b906000526020600020906003020160010190805190602001906108ba929190610e4c565b50506108d0565b8080600101915050610855565b505b5050565b600081815481106108e157fe5b9060005260206000209060030201600091509050806000018054600181600116156101000203166002900480601f01602080910402602001604051908101604052809291908181526020018280546001816001161561010002031660029004801561098d5780601f106109625761010080835404028352916020019161098d565b820191906000526020600020905b81548152906001019060200180831161097057829003601f168201915b505050505090806001018054600181600116156101000203166002900480601f016020809104026020016040519081016040528092919081815260200182805460018160011615610100020316600290048015610a2b5780601f10610a0057610100808354040283529160200191610a2b565b820191906000526020600020905b815481529060010190602001808311610a0e57829003601f168201915b5050505050908060020154905083565b60005b600180549050811015610aa7578260018281548110610a5957fe5b9060005260206000209060060201600001541415610a9a578160018281548110610a7f57fe5b90600052602060002090600602016005018190555050610aa9565b8080600101915050610a3e565b505b5050565b610ab5610ecc565b6040518060c001604052808881526020018781526020018681526020018581526020018481526020018381525090506001819080600181540180825580915050600190039060005260206000209060060201600090919091909150600082015181600001556020820151816001019080519060200190610b36929190610e4c565b506040820151816002019080519060200190610b53929190610e4c565b506060820151816003019080519060200190610b70929190610e4c565b506080820151816004019080519060200190610b8d929190610e4c565b5060a08201518160050155505050505050505050565b60018181548110610bb057fe5b9060005260206000209060060201600091509050806000015490806001018054600181600116156101000203166002900480601f016020809104026020016040519081016040528092919081815260200182805460018160011615610100020316600290048015610c625780601f10610c3757610100808354040283529160200191610c62565b820191906000526020600020905b815481529060010190602001808311610c4557829003601f168201915b505050505090806002018054600181600116156101000203166002900480601f016020809104026020016040519081016040528092919081815260200182805460018160011615610100020316600290048015610d005780601f10610cd557610100808354040283529160200191610d00565b820191906000526020600020905b815481529060010190602001808311610ce357829003601f168201915b505050505090806003018054600181600116156101000203166002900480601f016020809104026020016040519081016040528092919081815260200182805460018160011615610100020316600290048015610d9e5780601f10610d7357610100808354040283529160200191610d9e565b820191906000526020600020905b815481529060010190602001808311610d8157829003601f168201915b505050505090806004018054600181600116156101000203166002900480601f016020809104026020016040519081016040528092919081815260200182805460018160011615610100020316600290048015610e3c5780601f10610e1157610100808354040283529160200191610e3c565b820191906000526020600020905b815481529060010190602001808311610e1f57829003601f168201915b5050505050908060050154905086565b828054600181600116156101000203166002900490600052602060002090601f016020900481019282601f10610e8d57805160ff1916838001178555610ebb565b82800160010185558215610ebb579182015b82811115610eba578251825591602001919060010190610e9f565b5b509050610ec89190610f02565b5090565b6040518060c001604052806000815260200160608152602001606081526020016060815260200160608152602001600081525090565b5b80821115610f1b576000816000905550600101610f03565b509056fea2646970667358221220a36e4d4e82508fa4b8bffeb8dc401743b2d98beba1fadf5ed5a8d90d1cae42ec64736f6c63430007000033",
  "linkReferences": {},
  "deployedLinkReferences": {}
}